{
  "_format": "hh-sol-artifact-1",
  "contractName": "EvaluationSystemUpgradeable",
  "sourceName": "contracts/EvaluationSystemUpgradeable.sol",
  "abi": [
    {
      "inputs": [],
      "stateMutability": "nonpayable",
      "type": "constructor"
    },
    {
      "inputs": [
        {
          "internalType": "address",
          "name": "target",
          "type": "address"
        }
      ],
      "name": "AddressEmptyCode",
      "type": "error"
    },
    {
      "inputs": [
        {
          "internalType": "address",
          "name": "implementation",
          "type": "address"
        }
      ],
      "name": "ERC1967InvalidImplementation",
      "type": "error"
    },
    {
      "inputs": [],
      "name": "ERC1967NonPayable",
      "type": "error"
    },
    {
      "inputs": [],
      "name": "EnforcedPause",
      "type": "error"
    },
    {
      "inputs": [],
      "name": "ExpectedPause",
      "type": "error"
    },
    {
      "inputs": [],
      "name": "FailedCall",
      "type": "error"
    },
    {
      "inputs": [],
      "name": "InvalidInitialization",
      "type": "error"
    },
    {
      "inputs": [],
      "name": "NotInitializing",
      "type": "error"
    },
    {
      "inputs": [
        {
          "internalType": "address",
          "name": "owner",
          "type": "address"
        }
      ],
      "name": "OwnableInvalidOwner",
      "type": "error"
    },
    {
      "inputs": [
        {
          "internalType": "address",
          "name": "account",
          "type": "address"
        }
      ],
      "name": "OwnableUnauthorizedAccount",
      "type": "error"
    },
    {
      "inputs": [],
      "name": "ReentrancyGuardReentrantCall",
      "type": "error"
    },
    {
      "inputs": [],
      "name": "UUPSUnauthorizedCallContext",
      "type": "error"
    },
    {
      "inputs": [
        {
          "internalType": "bytes32",
          "name": "slot",
          "type": "bytes32"
        }
      ],
      "name": "UUPSUnsupportedProxiableUUID",
      "type": "error"
    },
    {
      "anonymous": false,
      "inputs": [
        {
          "indexed": false,
          "internalType": "uint256",
          "name": "evaluationFee",
          "type": "uint256"
        },
        {
          "indexed": false,
          "internalType": "uint256",
          "name": "minProfitTarget",
          "type": "uint256"
        },
        {
          "indexed": false,
          "internalType": "uint256",
          "name": "maxLossLimit",
          "type": "uint256"
        }
      ],
      "name": "ConfigUpdated",
      "type": "event"
    },
    {
      "anonymous": false,
      "inputs": [
        {
          "indexed": true,
          "internalType": "uint256",
          "name": "evaluationId",
          "type": "uint256"
        },
        {
          "indexed": false,
          "internalType": "uint256",
          "name": "newBalance",
          "type": "uint256"
        }
      ],
      "name": "EvaluationBalanceUpdated",
      "type": "event"
    },
    {
      "anonymous": false,
      "inputs": [
        {
          "indexed": true,
          "internalType": "uint256",
          "name": "evaluationId",
          "type": "uint256"
        },
        {
          "indexed": true,
          "internalType": "address",
          "name": "trader",
          "type": "address"
        },
        {
          "indexed": false,
          "internalType": "bool",
          "name": "passed",
          "type": "bool"
        }
      ],
      "name": "EvaluationCompleted",
      "type": "event"
    },
    {
      "anonymous": false,
      "inputs": [
        {
          "indexed": true,
          "internalType": "uint256",
          "name": "evaluationId",
          "type": "uint256"
        },
        {
          "indexed": true,
          "internalType": "address",
          "name": "trader",
          "type": "address"
        },
        {
          "indexed": false,
          "internalType": "uint256",
          "name": "evaluationTypeId",
          "type": "uint256"
        }
      ],
      "name": "EvaluationCreated",
      "type": "event"
    },
    {
      "anonymous": false,
      "inputs": [
        {
          "indexed": true,
          "internalType": "uint256",
          "name": "typeId",
          "type": "uint256"
        },
        {
          "indexed": false,
          "internalType": "uint256",
          "name": "price",
          "type": "uint256"
        },
        {
          "indexed": false,
          "internalType": "uint256",
          "name": "duration",
          "type": "uint256"
        }
      ],
      "name": "EvaluationTypeCreated",
      "type": "event"
    },
    {
      "anonymous": false,
      "inputs": [
        {
          "indexed": true,
          "internalType": "uint256",
          "name": "typeId",
          "type": "uint256"
        },
        {
          "indexed": false,
          "internalType": "uint256",
          "name": "price",
          "type": "uint256"
        },
        {
          "indexed": false,
          "internalType": "uint256",
          "name": "duration",
          "type": "uint256"
        }
      ],
      "name": "EvaluationTypeUpdated",
      "type": "event"
    },
    {
      "anonymous": false,
      "inputs": [
        {
          "indexed": false,
          "internalType": "uint64",
          "name": "version",
          "type": "uint64"
        }
      ],
      "name": "Initialized",
      "type": "event"
    },
    {
      "anonymous": false,
      "inputs": [
        {
          "indexed": true,
          "internalType": "address",
          "name": "previousOwner",
          "type": "address"
        },
        {
          "indexed": true,
          "internalType": "address",
          "name": "newOwner",
          "type": "address"
        }
      ],
      "name": "OwnershipTransferred",
      "type": "event"
    },
    {
      "anonymous": false,
      "inputs": [
        {
          "indexed": false,
          "internalType": "address",
          "name": "account",
          "type": "address"
        }
      ],
      "name": "Paused",
      "type": "event"
    },
    {
      "anonymous": false,
      "inputs": [
        {
          "indexed": true,
          "internalType": "address",
          "name": "trader",
          "type": "address"
        }
      ],
      "name": "TraderApproved",
      "type": "event"
    },
    {
      "anonymous": false,
      "inputs": [
        {
          "indexed": false,
          "internalType": "address",
          "name": "account",
          "type": "address"
        }
      ],
      "name": "Unpaused",
      "type": "event"
    },
    {
      "anonymous": false,
      "inputs": [
        {
          "indexed": true,
          "internalType": "address",
          "name": "implementation",
          "type": "address"
        }
      ],
      "name": "Upgraded",
      "type": "event"
    },
    {
      "inputs": [],
      "name": "UPGRADE_INTERFACE_VERSION",
      "outputs": [
        {
          "internalType": "string",
          "name": "",
          "type": "string"
        }
      ],
      "stateMutability": "view",
      "type": "function"
    },
    {
      "inputs": [
        {
          "internalType": "address",
          "name": "",
          "type": "address"
        }
      ],
      "name": "approvedTraders",
      "outputs": [
        {
          "internalType": "bool",
          "name": "",
          "type": "bool"
        }
      ],
      "stateMutability": "view",
      "type": "function"
    },
    {
      "inputs": [
        {
          "internalType": "uint256",
          "name": "_evaluationId",
          "type": "uint256"
        },
        {
          "internalType": "bool",
          "name": "_passed",
          "type": "bool"
        }
      ],
      "name": "completeEvaluation",
      "outputs": [],
      "stateMutability": "nonpayable",
      "type": "function"
    },
    {
      "inputs": [
        {
          "internalType": "uint256",
          "name": "_price",
          "type": "uint256"
        },
        {
          "internalType": "uint256",
          "name": "_duration",
          "type": "uint256"
        },
        {
          "internalType": "uint256",
          "name": "_targetProfit",
          "type": "uint256"
        },
        {
          "internalType": "uint256",
          "name": "_maxLoss",
          "type": "uint256"
        },
        {
          "internalType": "uint256",
          "name": "_initialBalance",
          "type": "uint256"
        }
      ],
      "name": "createEvaluationType",
      "outputs": [],
      "stateMutability": "nonpayable",
      "type": "function"
    },
    {
      "inputs": [],
      "name": "evaluationCount",
      "outputs": [
        {
          "internalType": "uint256",
          "name": "",
          "type": "uint256"
        }
      ],
      "stateMutability": "view",
      "type": "function"
    },
    {
      "inputs": [],
      "name": "evaluationFee",
      "outputs": [
        {
          "internalType": "uint256",
          "name": "",
          "type": "uint256"
        }
      ],
      "stateMutability": "view",
      "type": "function"
    },
    {
      "inputs": [],
      "name": "evaluationTypeCount",
      "outputs": [
        {
          "internalType": "uint256",
          "name": "",
          "type": "uint256"
        }
      ],
      "stateMutability": "view",
      "type": "function"
    },
    {
      "inputs": [
        {
          "internalType": "uint256",
          "name": "",
          "type": "uint256"
        }
      ],
      "name": "evaluationTypes",
      "outputs": [
        {
          "internalType": "uint256",
          "name": "price",
          "type": "uint256"
        },
        {
          "internalType": "uint256",
          "name": "duration",
          "type": "uint256"
        },
        {
          "internalType": "uint256",
          "name": "targetProfit",
          "type": "uint256"
        },
        {
          "internalType": "uint256",
          "name": "maxLoss",
          "type": "uint256"
        },
        {
          "internalType": "uint256",
          "name": "initialBalance",
          "type": "uint256"
        },
        {
          "internalType": "bool",
          "name": "isActive",
          "type": "bool"
        }
      ],
      "stateMutability": "view",
      "type": "function"
    },
    {
      "inputs": [
        {
          "internalType": "uint256",
          "name": "",
          "type": "uint256"
        }
      ],
      "name": "evaluations",
      "outputs": [
        {
          "internalType": "uint256",
          "name": "evaluationId",
          "type": "uint256"
        },
        {
          "internalType": "address",
          "name": "trader",
          "type": "address"
        },
        {
          "internalType": "uint256",
          "name": "initialBalance",
          "type": "uint256"
        },
        {
          "internalType": "uint256",
          "name": "targetProfit",
          "type": "uint256"
        },
        {
          "internalType": "uint256",
          "name": "maxLoss",
          "type": "uint256"
        },
        {
          "internalType": "uint256",
          "name": "startTime",
          "type": "uint256"
        },
        {
          "internalType": "uint256",
          "name": "endTime",
          "type": "uint256"
        },
        {
          "internalType": "uint256",
          "name": "currentBalance",
          "type": "uint256"
        },
        {
          "internalType": "bool",
          "name": "isActive",
          "type": "bool"
        },
        {
          "internalType": "bool",
          "name": "isCompleted",
          "type": "bool"
        },
        {
          "internalType": "bool",
          "name": "isPassed",
          "type": "bool"
        },
        {
          "internalType": "string",
          "name": "evaluationType",
          "type": "string"
        }
      ],
      "stateMutability": "view",
      "type": "function"
    },
    {
      "inputs": [
        {
          "internalType": "address",
          "name": "_trader",
          "type": "address"
        }
      ],
      "name": "getTraderEvaluations",
      "outputs": [
        {
          "internalType": "uint256[]",
          "name": "",
          "type": "uint256[]"
        }
      ],
      "stateMutability": "view",
      "type": "function"
    },
    {
      "inputs": [
        {
          "internalType": "address",
          "name": "initialOwner",
          "type": "address"
        }
      ],
      "name": "initialize",
      "outputs": [],
      "stateMutability": "nonpayable",
      "type": "function"
    },
    {
      "inputs": [
        {
          "internalType": "address",
          "name": "_trader",
          "type": "address"
        }
      ],
      "name": "isTraderApproved",
      "outputs": [
        {
          "internalType": "bool",
          "name": "",
          "type": "bool"
        }
      ],
      "stateMutability": "view",
      "type": "function"
    },
    {
      "inputs": [],
      "name": "maxLossLimit",
      "outputs": [
        {
          "internalType": "uint256",
          "name": "",
          "type": "uint256"
        }
      ],
      "stateMutability": "view",
      "type": "function"
    },
    {
      "inputs": [],
      "name": "minProfitTarget",
      "outputs": [
        {
          "internalType": "uint256",
          "name": "",
          "type": "uint256"
        }
      ],
      "stateMutability": "view",
      "type": "function"
    },
    {
      "inputs": [],
      "name": "owner",
      "outputs": [
        {
          "internalType": "address",
          "name": "",
          "type": "address"
        }
      ],
      "stateMutability": "view",
      "type": "function"
    },
    {
      "inputs": [],
      "name": "pause",
      "outputs": [],
      "stateMutability": "nonpayable",
      "type": "function"
    },
    {
      "inputs": [],
      "name": "paused",
      "outputs": [
        {
          "internalType": "bool",
          "name": "",
          "type": "bool"
        }
      ],
      "stateMutability": "view",
      "type": "function"
    },
    {
      "inputs": [],
      "name": "proxiableUUID",
      "outputs": [
        {
          "internalType": "bytes32",
          "name": "",
          "type": "bytes32"
        }
      ],
      "stateMutability": "view",
      "type": "function"
    },
    {
      "inputs": [],
      "name": "renounceOwnership",
      "outputs": [],
      "stateMutability": "nonpayable",
      "type": "function"
    },
    {
      "inputs": [
        {
          "internalType": "uint256",
          "name": "_typeId",
          "type": "uint256"
        },
        {
          "internalType": "bool",
          "name": "_isActive",
          "type": "bool"
        }
      ],
      "name": "setEvaluationTypeActive",
      "outputs": [],
      "stateMutability": "nonpayable",
      "type": "function"
    },
    {
      "inputs": [
        {
          "internalType": "uint256",
          "name": "_evaluationTypeId",
          "type": "uint256"
        }
      ],
      "name": "startEvaluation",
      "outputs": [],
      "stateMutability": "payable",
      "type": "function"
    },
    {
      "inputs": [
        {
          "internalType": "address",
          "name": "",
          "type": "address"
        },
        {
          "internalType": "uint256",
          "name": "",
          "type": "uint256"
        }
      ],
      "name": "traderEvaluations",
      "outputs": [
        {
          "internalType": "uint256",
          "name": "",
          "type": "uint256"
        }
      ],
      "stateMutability": "view",
      "type": "function"
    },
    {
      "inputs": [
        {
          "internalType": "address",
          "name": "newOwner",
          "type": "address"
        }
      ],
      "name": "transferOwnership",
      "outputs": [],
      "stateMutability": "nonpayable",
      "type": "function"
    },
    {
      "inputs": [],
      "name": "unpause",
      "outputs": [],
      "stateMutability": "nonpayable",
      "type": "function"
    },
    {
      "inputs": [
        {
          "internalType": "uint256",
          "name": "_evaluationFee",
          "type": "uint256"
        },
        {
          "internalType": "uint256",
          "name": "_minProfitTarget",
          "type": "uint256"
        },
        {
          "internalType": "uint256",
          "name": "_maxLossLimit",
          "type": "uint256"
        }
      ],
      "name": "updateConfig",
      "outputs": [],
      "stateMutability": "nonpayable",
      "type": "function"
    },
    {
      "inputs": [
        {
          "internalType": "uint256",
          "name": "_evaluationId",
          "type": "uint256"
        },
        {
          "internalType": "uint256",
          "name": "_newBalance",
          "type": "uint256"
        }
      ],
      "name": "updateEvaluationBalance",
      "outputs": [],
      "stateMutability": "nonpayable",
      "type": "function"
    },
    {
      "inputs": [
        {
          "internalType": "uint256",
          "name": "_typeId",
          "type": "uint256"
        },
        {
          "internalType": "uint256",
          "name": "_price",
          "type": "uint256"
        },
        {
          "internalType": "uint256",
          "name": "_duration",
          "type": "uint256"
        },
        {
          "internalType": "uint256",
          "name": "_targetProfit",
          "type": "uint256"
        },
        {
          "internalType": "uint256",
          "name": "_maxLoss",
          "type": "uint256"
        },
        {
          "internalType": "uint256",
          "name": "_initialBalance",
          "type": "uint256"
        }
      ],
      "name": "updateEvaluationType",
      "outputs": [],
      "stateMutability": "nonpayable",
      "type": "function"
    },
    {
      "inputs": [
        {
          "internalType": "address",
          "name": "newImplementation",
          "type": "address"
        },
        {
          "internalType": "bytes",
          "name": "data",
          "type": "bytes"
        }
      ],
      "name": "upgradeToAndCall",
      "outputs": [],
      "stateMutability": "payable",
      "type": "function"
    },
    {
      "inputs": [],
      "name": "withdrawFunds",
      "outputs": [],
      "stateMutability": "nonpayable",
      "type": "function"
    },
    {
      "stateMutability": "payable",
      "type": "receive"
    }
  ],
  "bytecode": "0x60a06040523060805234801561001457600080fd5b5061001d610022565b6100d4565b7ff0c57e16840df040f15088dc2f81fe391c3923bec73e23a9662efc9c229c6a00805468010000000000000000900460ff16156100725760405163f92ee8a960e01b815260040160405180910390fd5b80546001600160401b03908116146100d15780546001600160401b0319166001600160401b0390811782556040519081527fc7f505b2f371ae2175ee4913f4499e1f2633a7b5936321eed1cdaeb6115181d29060200160405180910390a15b50565b6080516120ad620000fe600039600081816115b1015281816115da015261171b01526120ad6000f3fe6080604052600436106101c65760003560e01c80637ae36c25116100f7578063c4d66de811610095578063ec0b90a211610064578063ec0b90a21461052a578063ec1761e014610540578063f03e814314610556578063f2fde38b146105d857600080fd5b8063c4d66de8146104be578063c9ace3f1146104de578063d53ccbd7146104f4578063e5d321361461051457600080fd5b8063a931222f116100d1578063a931222f14610410578063ad3cb1cc14610430578063b329c9381461046e578063c279e1721461048e57600080fd5b80637ae36c25146103ae5780638456cb59146103ce5780638da5cb5b146103e357600080fd5b806352d1902d116101645780636268e7621161013e5780636268e76214610343578063715018a61461036357806373ad4946146103785780637935407e1461039857600080fd5b806352d1902d146102b257806358298e8e146102d55780635c975abb1461031e57600080fd5b80633b36d605116101a05780633b36d6051461024a5780633f4ba83a1461025d57806348f4a3a1146102725780634f1ef2861461029f57600080fd5b806309b0598b146101d257806324600fc3146101f457806333c63b171461020957600080fd5b366101cd57005b600080fd5b3480156101de57600080fd5b506101f26101ed366004611abd565b6105f8565b005b34801561020057600080fd5b506101f26106d0565b34801561021557600080fd5b50610229610224366004611af2565b6107bd565b6040516102419c9b9a99989796959493929190611b5b565b60405180910390f35b6101f2610258366004611af2565b6108bc565b34801561026957600080fd5b506101f2610b95565b34801561027e57600080fd5b5061029261028d366004611bf2565b610ba7565b6040516102419190611c0d565b6101f26102ad366004611c67565b610c13565b3480156102be57600080fd5b506102c7610c2e565b604051908152602001610241565b3480156102e157600080fd5b5061030e6102f0366004611bf2565b6001600160a01b031660009081526008602052604090205460ff1690565b6040519015158152602001610241565b34801561032a57600080fd5b506000805160206120588339815191525460ff1661030e565b34801561034f57600080fd5b506102c761035e366004611d29565b610c4b565b34801561036f57600080fd5b506101f2610c7c565b34801561038457600080fd5b506101f2610393366004611d53565b610c8e565b3480156103a457600080fd5b506102c760035481565b3480156103ba57600080fd5b506101f26103c9366004611d7f565b610cf3565b3480156103da57600080fd5b506101f2610e63565b3480156103ef57600080fd5b506103f8610e73565b6040516001600160a01b039091168152602001610241565b34801561041c57600080fd5b506101f261042b366004611dba565b610ea1565b34801561043c57600080fd5b50610461604051806040016040528060058152602001640352e302e360dc1b81525081565b6040516102419190611dfd565b34801561047a57600080fd5b506101f2610489366004611e10565b611007565b34801561049a57600080fd5b5061030e6104a9366004611bf2565b60086020526000908152604090205460ff1681565b3480156104ca57600080fd5b506101f26104d9366004611bf2565b6111b2565b3480156104ea57600080fd5b506102c760005481565b34801561050057600080fd5b506101f261050f366004611abd565b6112db565b34801561052057600080fd5b506102c760015481565b34801561053657600080fd5b506102c760045481565b34801561054c57600080fd5b506102c760025481565b34801561056257600080fd5b506105a9610571366004611af2565b600660205260009081526040902080546001820154600283015460038401546004850154600590950154939492939192909160ff1686565b6040805196875260208701959095529385019290925260608401526080830152151560a082015260c001610241565b3480156105e457600080fd5b506101f26105f3366004611bf2565b61135e565b610600611399565b6106086113cb565b6000828152600560205260409020600881015460ff166106675760405162461bcd60e51b81526020600482015260156024820152744576616c756174696f6e206e6f742061637469766560581b60448201526064015b60405180910390fd5b6008810154610100900460ff16156106c15760405162461bcd60e51b815260206004820152601c60248201527f4576616c756174696f6e20616c726561647920636f6d706c6574656400000000604482015260640161065e565b6106cb83836113fc565b505050565b6106d8611399565b478061071d5760405162461bcd60e51b81526020600482015260146024820152734e6f2066756e647320746f20776974686472617760601b604482015260640161065e565b6000610727610e73565b6001600160a01b03168260405160006040518083038185875af1925050503d8060008114610771576040519150601f19603f3d011682016040523d82523d6000602084013e610776565b606091505b50509050806107b95760405162461bcd60e51b815260206004820152600f60248201526e151c985b9cd9995c8819985a5b1959608a1b604482015260640161065e565b5050565b60056020819052600091825260409091208054600182015460028301546003840154600485015495850154600686015460078701546008880154600989018054989a6001600160a01b0390981699969895979694959394929360ff80841694610100850482169462010000900490911692909161083990611e32565b80601f016020809104026020016040519081016040528092919081815260200182805461086590611e32565b80156108b25780601f10610887576101008083540402835291602001916108b2565b820191906000526020600020905b81548152906001019060200180831161089557829003601f168201915b505050505090508c565b6108c46114d6565b6108cc6113cb565b6000818152600660205260409020600581015460ff1661092e5760405162461bcd60e51b815260206004820152601a60248201527f4576616c756174696f6e2074797065206e6f7420616374697665000000000000604482015260640161065e565b80543410156109785760405162461bcd60e51b8152602060048201526016602482015275125b9cdd59999a58da595b9d0812165411481cd95b9d60521b604482015260640161065e565b60008054908061098783611e82565b9091555050600054604080516101808101825282815233602082015260048401549181019190915260028301546060820152600383015460808201524260a0820152600183015460c08201906109e09062015180611e9b565b6109ea9042611eb2565b815260048481015460208084019190915260016040808501829052600060608087018290526080808801839052835180850185528781526364656d6f60e01b8188015260a098890152898352600580875292849020895181559589015194860180546001600160a01b0319166001600160a01b03909616959095179094559187015160028501559086015160038401559085015192820192909255918301519082015560c0820151600682015560e082015160078201556101008083015160088301805461012086015161014087015161ffff1990921693151561ff001916939093179215159093029190911762ff0000191662010000921515929092029190911790556101608201516009820190610b039082611f0d565b5050336000818152600760209081526040808320805460018101825590845291909220018490555190915082907fd3eedc153c034c6c963b56e09fd2064f9afb9cdd37f647bc294e1e9365b6d16090610b5f9087815260200190565b60405180910390a35050610b9260017f9b779b17422d0df92223018b32b4d1fa46e071723d6817e2486d003becc55f0055565b50565b610b9d611399565b610ba5611546565b565b6001600160a01b038116600090815260076020908152604091829020805483518184028101840190945280845260609392830182828015610c0757602002820191906000526020600020905b815481526020019060010190808311610bf3575b50505050509050919050565b610c1b6115a6565b610c248261164b565b6107b98282611653565b6000610c38611710565b5060008051602061203883398151915290565b60076020528160005260406000208181548110610c6757600080fd5b90600052602060002001600091509150505481565b610c84611399565b610ba56000611759565b610c96611399565b610c9e6113cb565b60028390556003829055600481905560408051848152602081018490529081018290527f6d05db271e19f930af71c4765de54ef86294762644c20f4d6fd2609d057d3c7b9060600160405180910390a1505050565b610cfb611399565b610d036113cb565b600354831015610d4d5760405162461bcd60e51b815260206004820152601560248201527450726f6669742074617267657420746f6f206c6f7760581b604482015260640161065e565b600454821115610d955760405162461bcd60e51b8152602060048201526013602482015272098dee6e640d8d2dad2e840e8dede40d0d2ced606b1b604482015260640161065e565b60018054906000610da583611e82565b9091555050600180546040805160c0810182528881526020808201898152828401898152606084018981526080850189815260a0860189815260008981526006875288902096518755935198860198909855905160028501555160038401559451600483015593516005909101805460ff19169115159190911790558051888152928301879052909182917f7552fa7a146457336e58c36379f1182ed03e22379b3e5db086d2eeffd6bbdd15910160405180910390a2505050505050565b610e6b611399565b610ba56117ca565b7f9016d09d72d40fdae2fd8ceac6b6234c7706214fd39c1cd1e609a0528c199300546001600160a01b031690565b610ea9611399565b610eb16113cb565b600086118015610ec357506001548611155b610f015760405162461bcd60e51b815260206004820152600f60248201526e125b9d985b1a59081d1e5c19481251608a1b604482015260640161065e565b600354831015610f4b5760405162461bcd60e51b815260206004820152601560248201527450726f6669742074617267657420746f6f206c6f7760581b604482015260640161065e565b600454821115610f935760405162461bcd60e51b8152602060048201526013602482015272098dee6e640d8d2dad2e840e8dede40d0d2ced606b1b604482015260640161065e565b6000868152600660209081526040918290208781556001810187905560028101869055600381018590556004810184905582518881529182018790529188917fd9cf04984fab40daeb57d6d753e4113d484b645aac3527c94a790dbc03fef10591015b60405180910390a250505050505050565b61100f611399565b6110176113cb565b6000828152600560205260409020600881015460ff166110715760405162461bcd60e51b81526020600482015260156024820152744576616c756174696f6e206e6f742061637469766560581b604482015260640161065e565b6008810154610100900460ff16156110cb5760405162461bcd60e51b815260206004820152601c60248201527f4576616c756174696f6e20616c726561647920636f6d706c6574656400000000604482015260640161065e565b81816007018190555060006064826003015483600201546110ec9190611e9b565b6110f69190611fcd565b9050600082600201548461110a9190611fef565b905081811061111e5761111e8560016113fc565b60006064846004015485600201546111369190611e9b565b6111409190611fcd565b905060008585600201546111549190611fef565b9050818110611168576111688760006113fc565b846006015442106111805761118087858510156113fc565b867f193b0926f423936af9d8a308eeeeafd75eb4585d6c8b2979c66b4a8aa077608e87604051610ff691815260200190565b60006111bc611813565b805490915060ff600160401b820416159067ffffffffffffffff166000811580156111e45750825b905060008267ffffffffffffffff1660011480156112015750303b155b90508115801561120f575080155b1561122d5760405163f92ee8a960e01b815260040160405180910390fd5b845467ffffffffffffffff19166001178555831561125757845460ff60401b1916600160401b1785555b61125f61183e565b61126761184e565b61127086611856565b61127861184e565b66038d7ea4c680006002556005600381905560045583156112d357845460ff60401b19168555604051600181527fc7f505b2f371ae2175ee4913f4499e1f2633a7b5936321eed1cdaeb6115181d29060200160405180910390a15b505050505050565b6112e3611399565b6112eb6113cb565b6000821180156112fd57506001548211155b61133b5760405162461bcd60e51b815260206004820152600f60248201526e125b9d985b1a59081d1e5c19481251608a1b604482015260640161065e565b600091825260066020526040909120600501805460ff1916911515919091179055565b611366611399565b6001600160a01b03811661139057604051631e4fbdf760e01b81526000600482015260240161065e565b610b9281611759565b336113a2610e73565b6001600160a01b031614610ba55760405163118cdaa760e01b815233600482015260240161065e565b6000805160206120588339815191525460ff1615610ba55760405163d93c066560e01b815260040160405180910390fd5b600082815260056020526040902060088101805483158015620100000262ffffff19909216919091176101001790915561148957600181810180546001600160a01b03908116600090815260086020526040808220805460ff1916909517909455915492519216917f33bf93b938f5b494e34a9acb206cb1652df06bda57ad5e9b631ecb79d55649a49190a25b600181015460405183151581526001600160a01b039091169084907f19f1411f41e4f016c87a37d3189abf21b2a375d6b58dd032ef8cb90805f2784f9060200160405180910390a3505050565b7f9b779b17422d0df92223018b32b4d1fa46e071723d6817e2486d003becc55f0080546001190161151a57604051633ee5aeb560e01b815260040160405180910390fd5b60029055565b60017f9b779b17422d0df92223018b32b4d1fa46e071723d6817e2486d003becc55f0055565b61154e611867565b600080516020612058833981519152805460ff191681557f5db9ee0a495bf2e6ff9c91a7834c1ba4fdd244a5e8aa4e537bd38aeae4b073aa335b6040516001600160a01b03909116815260200160405180910390a150565b306001600160a01b037f000000000000000000000000000000000000000000000000000000000000000016148061162d57507f00000000000000000000000000000000000000000000000000000000000000006001600160a01b0316611621600080516020612038833981519152546001600160a01b031690565b6001600160a01b031614155b15610ba55760405163703e46dd60e11b815260040160405180910390fd5b610b92611399565b816001600160a01b03166352d1902d6040518163ffffffff1660e01b8152600401602060405180830381865afa9250505080156116ad575060408051601f3d908101601f191682019092526116aa91810190612002565b60015b6116d557604051634c9c8ce360e01b81526001600160a01b038316600482015260240161065e565b600080516020612038833981519152811461170657604051632a87526960e21b81526004810182905260240161065e565b6106cb8383611897565b306001600160a01b037f00000000000000000000000000000000000000000000000000000000000000001614610ba55760405163703e46dd60e11b815260040160405180910390fd5b7f9016d09d72d40fdae2fd8ceac6b6234c7706214fd39c1cd1e609a0528c19930080546001600160a01b031981166001600160a01b03848116918217845560405192169182907f8be0079c531659141344cd1fd0a4f28419497f9722a3daafe3b4186f6b6457e090600090a3505050565b6117d26113cb565b600080516020612058833981519152805460ff191660011781557f62e78cea01bee320cd4e420270b5ea74000d11b0c9f74754ebdbfc544b05a25833611588565b6000807ff0c57e16840df040f15088dc2f81fe391c3923bec73e23a9662efc9c229c6a005b92915050565b6118466118ed565b610ba5611912565b610ba56118ed565b61185e6118ed565b610b928161191a565b6000805160206120588339815191525460ff16610ba557604051638dfc202b60e01b815260040160405180910390fd5b6118a082611922565b6040516001600160a01b038316907fbc7cd75a20ee27fd9adebab32041f755214dbc6bffa90cc0225b39da2e5c2d3b90600090a28051156118e5576106cb8282611987565b6107b96119fd565b6118f5611a1c565b610ba557604051631afcd79f60e31b815260040160405180910390fd5b6115206118ed565b6113666118ed565b806001600160a01b03163b60000361195857604051634c9c8ce360e01b81526001600160a01b038216600482015260240161065e565b60008051602061203883398151915280546001600160a01b0319166001600160a01b0392909216919091179055565b6060600080846001600160a01b0316846040516119a4919061201b565b600060405180830381855af49150503d80600081146119df576040519150601f19603f3d011682016040523d82523d6000602084013e6119e4565b606091505b50915091506119f4858383611a36565b95945050505050565b3415610ba55760405163b398979f60e01b815260040160405180910390fd5b6000611a26611813565b54600160401b900460ff16919050565b606082611a4b57611a4682611a95565b611a8e565b8151158015611a6257506001600160a01b0384163b155b15611a8b57604051639996b31560e01b81526001600160a01b038516600482015260240161065e565b50805b9392505050565b805115611aa457805160208201fd5b60405163d6bda27560e01b815260040160405180910390fd5b60008060408385031215611ad057600080fd5b8235915060208301358015158114611ae757600080fd5b809150509250929050565b600060208284031215611b0457600080fd5b5035919050565b60005b83811015611b26578181015183820152602001611b0e565b50506000910152565b60008151808452611b47816020860160208601611b0b565b601f01601f19169290920160200192915050565b60006101808e835260018060a01b038e1660208401528c60408401528b60608401528a60808401528960a08401528860c08401528760e084015286151561010084015285151561012084015284151561014084015280610160840152611bc381840185611b2f565b9f9e505050505050505050505050505050565b80356001600160a01b0381168114611bed57600080fd5b919050565b600060208284031215611c0457600080fd5b611a8e82611bd6565b6020808252825182820181905260009190848201906040850190845b81811015611c4557835183529284019291840191600101611c29565b50909695505050505050565b634e487b7160e01b600052604160045260246000fd5b60008060408385031215611c7a57600080fd5b611c8383611bd6565b9150602083013567ffffffffffffffff80821115611ca057600080fd5b818501915085601f830112611cb457600080fd5b813581811115611cc657611cc6611c51565b604051601f8201601f19908116603f01168101908382118183101715611cee57611cee611c51565b81604052828152886020848701011115611d0757600080fd5b8260208601602083013760006020848301015280955050505050509250929050565b60008060408385031215611d3c57600080fd5b611d4583611bd6565b946020939093013593505050565b600080600060608486031215611d6857600080fd5b505081359360208301359350604090920135919050565b600080600080600060a08688031215611d9757600080fd5b505083359560208501359550604085013594606081013594506080013592509050565b60008060008060008060c08789031215611dd357600080fd5b505084359660208601359650604086013595606081013595506080810135945060a0013592509050565b602081526000611a8e6020830184611b2f565b60008060408385031215611e2357600080fd5b50508035926020909101359150565b600181811c90821680611e4657607f821691505b602082108103611e6657634e487b7160e01b600052602260045260246000fd5b50919050565b634e487b7160e01b600052601160045260246000fd5b600060018201611e9457611e94611e6c565b5060010190565b808202811582820484141761183857611838611e6c565b8082018082111561183857611838611e6c565b601f8211156106cb576000816000526020600020601f850160051c81016020861015611eee5750805b601f850160051c820191505b818110156112d357828155600101611efa565b815167ffffffffffffffff811115611f2757611f27611c51565b611f3b81611f358454611e32565b84611ec5565b602080601f831160018114611f705760008415611f585750858301515b600019600386901b1c1916600185901b1785556112d3565b600085815260208120601f198616915b82811015611f9f57888601518255948401946001909101908401611f80565b5085821015611fbd5787850151600019600388901b60f8161c191681555b5050505050600190811b01905550565b600082611fea57634e487b7160e01b600052601260045260246000fd5b500490565b8181038181111561183857611838611e6c565b60006020828403121561201457600080fd5b5051919050565b6000825161202d818460208701611b0b565b919091019291505056fe360894a13ba1a3210667c828492db98dca3e2076cc3735a920a3ca505d382bbccd5ed15c6e187e77e9aee88184c21f4f2182ab5827cb3b7e07fbedcd63f03300a2646970667358221220f00058c1e954ca69cb3981d158cf096e5a0b22525b1743ef503a3bb56a9f112f64736f6c63430008160033",
  "linkReferences": {},
  "deployedLinkReferences": {}
}